:020000040800F2
:1000000000000220FD060008F9060008054300086C
:10001000F9060008F9060008F906000800000000CB
:10002000000000000000000000000000F9060008C9
:10003000F906000800000000F906000889420008DF
:10004000F9060008F9060008F9060008F906000894
:10005000F9060008F9060008F9060008F906000884
:10006000F9060008F9060008F9060008913E0008A4
:100070009D3E0008ED2D0008A93E0008B53E000891
:10008000F9060008C1330008F9060008F90600085F
:10009000F9060008F9060008F9060008F906000844
:1000A000F9060008F9060008F9060008F906000834
:1000B000F9060008F9060008F9060008F5330008FB
:1000C000F906000801340008F906000879D900088B
:1000D000F9060008F9060008F9060008F906000804
:1000E000F9060008F906000800000000F9060008FB
:1000F000F9060008F9060008F9060008F9060008E4
:10010000F9060008F9060008F9060008F9060008D3
:10011000F9060008F9060008F9060008F9060008C3
:10012000F9060008F906000885D90008B9D90008C1
:10013000F9060008F9060008F9060008F9060008A3
:1001400000000000000000000000000000000000AF
:10015000F9060008F9060008F9060008F906000883
:100160000D340008F906000899420008BD42000855
:10017000F9060008E1420008F9060008F90600083F
:10018000F9060008F9060008F9060008F906000853
:10019000F9060008F9060008F9060008F906000843
:1001A000F9060008F9060008F9060008F906000833
:1001B000B13B0008F9060008F9060008F906000836
:1001C000F9060008F906000835D1000841D10008F9
:1001D000F90600084DD10008F9060008F9060008E4
:1001E000F9060008F9060008F9060008F9060008F3
:1001F000F9060008F9060008F9060008F9060008E3
:10020000F9060008F9060008F9060008F9060008D2
:10021000F9060008F9060008F9060008F9060008C2
:10022000F9060008F9060008F906000800000000B9
:10023000F9060008F906000800000000F9060008A9
:10024000F9060008F9060008F9060008F906000892
:10025000F9060008F9060008F9060008F906000882
:10026000F9060008F9060008F9060008F906000872
:10027000F9060008F9060008F90600080000000069
:10028000F9060008F9060008F90600080000000059
:0802900000000000F90600085F
:1002A00010B5054C237833B9044B13B10448AFF3B0
:1002B00000800123237010BD3004002400000000E2
:1002C000701E010808B5034B1BB103490348AFF387
:1002D000008008BD0000000034040024701E0108E6
:1002E00001F0FF01102A2BDB10F0070F08D010F8E7
:1002F000013B013A8B422DD010F0070F42B3F6D1EB
:10030000F0B441EA012141EA014122F007047FF003
:1003100000070023F0E80256083C85EA010586EA5A
:10032000010685FA47F5A3FA87F586FA47F6A5FA96
:1003300087F68EB9EED1F0BC01F0FF0102F00702A2
:1003400032B110F8013B013A83EA010313B1F8D14D
:100350000020704701387047002D06BF354603382E
:10036000073815F0010F07D1013015F4807F02BF67
:10037000013015F4C03F0130F0BC0138704700BFB8
:1003800081F0004102E000BF83F0004330B54FEA46
:1003900041044FEA430594EA050F08BF90EA020FB3
:1003A0001FBF54EA000C55EA020C7FEA645C7FEA46
:1003B000655C00F0E2804FEA5454D4EB5555B8BF69
:1003C0006D420CDD2C4480EA020281EA030382EADA
:1003D000000083EA010180EA020281EA0303362D6C
:1003E00088BF30BD11F0004F4FEA01314FF4801C3F
:1003F0004CEA113102D0404261EB410113F0004F51
:100400004FEA03334CEA133302D0524263EB430307
:1004100094EA050F00F0A780A4F10104D5F1200EA5
:100420000DDB02FA0EFC22FA05F2801841F1000100
:1004300003FA0EF2801843FA05F359410EE0A5F1D4
:1004400020050EF1200E012A03FA0EFC28BF4CF005
:10045000020C43FA05F3C01851EBE37101F00045BB
:1004600007D54FF0000EDCF1000C7EEB00006EEBC8
:100470000101B1F5801F1BD3B1F5001F0CD3490852
:100480005FEA30004FEA3C0C04F101044FEA4452A9
:1004900012F5800F80F09A80BCF1004F08BF5FEA30
:1004A000500C50F1000041EB045141EA050130BD10
:1004B0005FEA4C0C404141EB0101013C28BFB1F522
:1004C000801FE9D291F0000F04BF01460020B1FA6D
:1004D00081F308BF2033A3F10B03B3F120020CDA40
:1004E0000C3208DD02F1140CC2F10C0201FA0CF01E
:1004F00021FA02F10CE002F11402D8BFC2F1200C83
:1005000001FA02F120FA0CFCDCBF41EA0C01904038
:10051000E41AA2BF01EB0451294330BD6FEA040481
:100520001F3C1CDA0C340EDC04F11404C4F120026C
:1005300020FA04F001FA02F340EA030021FA04F37E
:1005400045EA030130BDC4F10C04C4F1200220FAD5
:1005500002F001FA04F340EA0300294630BD21FA13
:1005600004F0294630BD94F0000F83F4801306BFD9
:1005700081F480110134013D4EE77FEA645C18BFCD
:100580007FEA655C29D094EA050F08BF90EA020F64
:1005900005D054EA000C04BF1946104630BD91EA5C
:1005A000030F1EBF0021002030BD5FEA545C05D15F
:1005B0004000494128BF41F0004130BD14F580049E
:1005C0003CBF01F5801130BD01F0004545F0FE4112
:1005D00041F470014FF0000030BD7FEA645C1ABF47
:1005E000194610467FEA655C1CBF0B46024650EA7E
:1005F000013406BF52EA033591EA030F41F40021AA
:1006000030BD00BF90F0000F04BF0021704730B52F
:100610004FF4806404F132044FF000054FF0000104
:1006200050E700BF90F0000F04BF0021704730B5C5
:100630004FF4806404F1320410F0004548BF40429A
:100640004FF000013EE700BF42004FEAE2014FEAEF
:1006500031014FEA02701FBF12F07F4393F07F4FCA
:1006600081F06051704732F07F4208BF704793F0CD
:100670007F4F04BF41F40021704730B54FF46074E0
:1006800001F0004521F000411CE700BF50EA0102E3
:1006900008BF704730B54FF000050AE050EA01028C
:1006A00008BF704730B511F0004502D5404261EBFC
:1006B00041014FF4806404F132045FEA915C3FF43D
:1006C000D8AE4FF003025FEADC0C18BF03325FEADA
:1006D000DC0C18BF033202EBDC02C2F1200300FA8B
:1006E00003FC20FA02F001FA03FE40EA0E0021FAB0
:1006F00002F11444BDE600BFFEE700BF0B480C4A00
:10070000904203D0121A0B4910F046F80A480B4ADF
:10071000904203D0121A002110F04CF804F012F8A5
:1007200010F00EF800F0DAFBFEE700BF0000002436
:100730002C040024941E01083004002420E7002427
:10074000704700BF704700BF704700BF704700BFD1
:10075000704700BF704700BF2DE9F04F2DED0A8BA9
:1007600085B00392002A00F0C9800023664D674AD5
:10077000674CDFF8C4B1DFF8C4A1DFF8C491DFF83B
:10078000C481644F644E6548B2EE047AB7EE004B04
:10079000D0ED007AB0EE005BF5EEC07AF1EE10FA23
:1007A00009DD95ED006A27EE866A26EE076AB7EE48
:1007B000C66A36EE045B92ED006AF2EE048A9FEDA3
:1007C00058CAB6EE009BB7EEC66ADFED56BA50487F
:1007D000F7EE00AA26EE056BCDE90131524BB7EEDC
:1007E000C6AB8AFE0CAA8AFE6BAAB0EE4A0A83ED5B
:1007F00000AA84ED02AA0FF0D7F94C4884ED080A4C
:10080000B0EE4A0A0FF090FB41480EF0EBFF9AED74
:10081000007AB7EE005B99ED006A20EE077A9BED57
:1008200000AAB7EEC66A4148B0EE40BA27EE287A71
:1008300020EE0AAAB7EEC77A37EE057B27EE067BD5
:10084000B7EEC78B88FE0C8A88FE6B8AB0EE480A2A
:100850000FF09CFB98ED006A97ED007AB7EECB5A4B
:10086000B7EEC66A3248B7EEC77AF2EE024A26EE13
:10087000096BB0EE6A0AA6EE057BB7EEC77BA7EE62
:10088000240A80FE2A0A80FE680A00F0F1FC27484C
:100890000FF0E8F9B7EECA7AB7EEC05A85ED000A54
:1008A000FFEE006AD6ED004A37EE099B214BB0EE11
:1008B000006A1F48B0EE660A83ED008A29EE059BA8
:1008C000A4EE860A80FE260A80FE6A0AB7EEC99B5D
:1008D00039EE000A00F0D0FC0299019B0868039AE7
:1008E00000EB830080ED00BA486800EB8300013321
:1008F0009A4280ED000A054A7FF445AF05B0BDEC91
:100900000A8BBDE8F08F00BF0400002494950024FA
:100910005895002458040024540400244C04002456
:100920000AD7233C00409C469C040024BC9500242C
:1009300050040024A00400248895002498950024E5
:10094000F09500245C04002410B5274C03212046B8
:1009500002F0F0F9254B0421204683ED000A02F055
:10096000E9F9234B0521204683ED000A02F0E2F964
:10097000204B0621204683ED000A02F0DBF91E4BD6
:100980000021204683ED000A02F0D4F91B4B01211F
:10099000204683ED000A02F0CDF9194B02212046D2
:1009A00083ED000A02F0C6F9164B0821204683EDBC
:1009B000000A02F0BFF9144B0921204683ED000A1A
:1009C00002F0B8F9114B0721204683ED000A02F02E
:1009D000B1F90F4B0A21204683ED000A02F0AAF973
:1009E0000C4B83ED000A10BD780400248C95002484
:1009F000909500249895002488950024E89500247B
:100A0000EC95002404960024580400245404002487
:100A10005C0400244C04002408B5224BF2EE080AC2
:100A20009FED217AB0EE000AD3ED007AF8EEE77A76
:100A300077EEC77AC7EEA00A0FF0C2FADFED1B6AA5
:100A40001B4A1C4B92ED005A20EE260AD3ED006A99
:100A5000B5EE007A184AF1EE007A184B92ED006A72
:100A600020EE077A60EE277AB0EE470A77EEC75A93
:100A7000A5EE250A80FE070A80FE670AB0EE407ADE
:100A8000A6EEC07AA6EE800AF0EE477A70EE476ACC
:100A9000E6EE267AC7FE877A87FEC00A83ED000A53
:100AA00008BD00BF0C00002400008A420000DC43A7
:100AB000E895002410000024EC950024F095002413
:100AC00008B5234B9B7AFF2B14D09FED227AF3EECF
:100AD000046A214AF0EE477A9FED206A204BD2ED5E
:100AE000005AE5EE867AC7FE877AC7FEE67AC3ED3E
:100AF000007A08BD1B4BF2EE080A9FED1B7AB0EEA0
:100B0000000AD3ED007AF8EEE77A77EEC77AC7EEFF
:100B1000A00A0FF055FA9FED157A0F4A104B92ED8F
:100B2000006AF5EE007AF1EE006A20EE070A20EE88
:100B3000277A20EE260AF0EE477A70EE476AE6EE54
:100B4000267AC7FE877A87FEC00A83ED000A08BDB1
:100B50009C950024CDCC4C3D8C9500249A999F41C6
:100B6000949500240800002400008A420000DC4321
:100B700003792DE9F0410446C8B0032B0CD8DFE817
:100B800003F06A1D020E00F5104595F8AC300B40DD
:100B900000F095800023237148B0BDE8F081F7296B
:100BA00000F0BF8090F9922090F89230002AF3DB99
:100BB000C2180133917480F89230EDE700F51045CA
:100BC00095F8AC301942E5D195F8AE8001EA0808F5
:100BD00080F8108095F8A4703B1F012B06D990F87F
:100BE000933003F0FD03012B40F0C58000236E46D7
:100BF000902204F10801304623710FF0CDFDD5F8A5
:100C00009830D5F89C20013B9B1ADBB2002BF6D024
:100C1000902231460DEB02000FF0BEFDD5F89C602E
:100C200024A9902206EBC600013604EB0010F6B2B0
:100C300098300FF0B1FDC5F89C60B8F1770FABD9D3
:100C4000032FA9D10923A8F17801237285F8A430D4
:100C500084F89510A0E700F5104595F8AC301942DE
:100C600021D095F8B0300B40C36095F8AD300B4003
:100C70001B09092B03728FD80122072B027185F8FB
:100C8000A43089D10023C36011F0080040F0A48093
:100C900001F0070384F89330002B73D1032284F80A
:100CA0009230227178E795F8A4300222037295F809
:100CB000AE3002711940017448B0BDE8F08195F87A
:100CC000AE201140417495F8A420012A01D10029D9
:100CD00054D06E46902204F1080130460FF05CFDBE
:100CE000D5F89830D5F89C20013B9B1ADBB2002B3D
:100CF000F6D0902231460DEB02000FF04DFDD5F8F5
:100D00009C6024A9902206EBC600013604EB00107B
:100D1000F6B298300FF040FD0023C5F89C602371B7
:100D20003AE700236E4600F1080100F51045037113
:100D3000902230460FF030FDD5F89830D5F89C2041
:100D4000013B9B1ADBB2002BF6D0902231460DEB13
:100D500002000FF021FDD5F89C6024A9902206EB3B
:100D6000C600013604EB0010F6B298300FF014FD07
:100D7000C5F89C6010E7022303715EE785F8A43094
:100D80000372A6E74B077FF507AF6E4620719022EE
:100D900004F1080130460FF0FFFCD5F89830D5F883
:100DA0009C20013B9B1ADBB2002BF6D090223146EF
:100DB0000DEB02000FF0F0FCD5F89C6024A9902206
:100DC00006EBC60004EB001098300FF0E5FC731C36
:100DD000DBB2C5F89C30DFE608226E462272304650
:100DE00085F8A42095F8B22023711140902284F850
:100DF000941004F108010FF0CFFCD5F89830D5F825
:100E00009C20013B9B1ADBB2002BF6D0CEE700BF43
:100E100070B503F0E7FA2C4C054607E0C4F8A05083
:100E200001F036FD01462948FFF7A2FE284801F0EF
:100E300025FD03462648002BF0D1254801F03CFD56
:100E40000346002837D0D4F89C30D4F898209B1A59
:100E5000DBB233B31D4901F19800D4F89C30D4F8CB
:100E600098209B1ADBB2002BF7D0D4F8983003EB14
:100E7000C30201331201DBB201EB020C825CC4F845
:100E80009830012A9CF8A050DCF89C609CF8A130B6
:100E900008D0D4F89C30D4F898209B1ADBB2002BF1
:100EA000DBD170BD002BF4D00A4A0B4B0EB9156094
:100EB000EFE71D60EDE7054905480B7101F000FD06
:100EC000034801F0D7FCBEE7A4940024A404002446
:100ED0004C950024080000240C0000242DE9F0416A
:100EE0009E4800249E4D4FF00208042705F5104649
:100EF0002DED028BBEB09FED9B8A00F0DDF9002145
:100F0000964800F07DFA1A2000F0D8F90346B0EEBA
:100F1000480A9548ADF80030009901F0EBFB1B2022
:100F200000F0CCF90346B0EE480A9048ADF8043022
:100F3000019901F0DFFB1C2000F0C0F90346B0EE80
:100F4000480A8B48ADF80830029901F0D3FB1D2008
:100F500000F0B4F90346B0EE480A8648ADF80C300C
:100F6000039901F0C7FB214606F1A80086F8A540C9
:100F700001F058FC0A230321C6F89C407748C6F8C4
:100F8000984001262B722C7100F0B2F9734800F0E2
:100F9000CBF97948F0EE408A0EF012FEB7EE007AF7
:100FA000764D00224FF07C5375492846C7EE287ACB
:100FB000EA616B60EB602961C5ED058AB0EE480A15
:100FC00085ED028AC5ED067A0EF0EEFD40F20113C2
:100FD0006C496248AB8585ED080A2C7000F084F9F5
:100FE0008DF810800DF16F008DF81140049901F01B
:100FF00099FC03238DF8144020A88DF8153005992D
:1010000001F090FC8DF818608DF819600DF19100D9
:10101000069901F087FC07238DF81C400FA88DF876
:101020001D30079901F07EFC06238DF820400DF15C
:101030004D008DF82130089901F074FC8DF8248062
:101040008DF825600DF15E00099901F06BFC8DF8BB
:1010500028408DF829700DF1A2000A9901F062FC78
:101060008DF82C808DF82D7031A80B9901F05AFC69
:1010700005238DF830400DF1D5008DF831300C99F5
:1010800001F050FC8DF834408DF835600DF1B3005F
:101090000D9901F047FC8DF838408DF839400DF17D
:1010A000E6000E9901F03EFC3B460B220FA93648A4
:1010B00001F046FC34482E4CDFF8E0802D4F2B4EDB
:1010C00001F022FE25E098ED000A2B480EF03CFFCF
:1010D000B97A2948A1F1FF01B1FA81F149090EF06D
:1010E00053FFFFF7EDFCFFF797FCA37AB7EE000A7A
:1010F000DFED267AFF2B204800FE270A0EF040FF86
:10110000B37A0120FF2B0CBF002305232B7003F0C3
:101110006BF9154801F008FB144801F005FB144871
:1011200001F002FB134801F0FFFAFFF771FEFFF731
:101130000BFCA37AFF2BC6D1DFED157A98ED006A80
:10114000B0EE670ADFED136A9FED137AA6EE260A6A
:1011500080FE270A80FE470AB7E700BF600400242C
:10116000A40400240000C8429C950024AC950024EF
:10117000F495002408960024BC950024589500247A
:10118000DB0F4940590700087804002400000000E4
:10119000CDCC4C3E9A99193FCDCC4C3F04960024BF
:1011A00038B522480025224C224922460560456177
:1011B00005620EF0FFFE204820494FF60F0200F5B1
:1011C00010430560C3F8A8500725C3F8AC10A3F876
:1011D000B020224683F8B25019490EF0EBFE2246A9
:1011E00018491948194D0EF0E5FE224618491948CC
:1011F0000EF0E0FE2246184918480EF0DBFE2246AB
:10120000294617480EF0D6FE2246294615480EF00C
:10121000D1FE2246294614480EF0CCFE224629462D
:101220001248BDE838400EF0C5BE00BF600400247F
:101230000000002445070008A404002480707FF00B
:101240005507000849070008589500244107000881
:101250004D070008BC9500245107000850040024E5
:10126000F4950024AC9500249C9500240896002455
:1012700080ED000A704700BFD0ED007AB7EE007A2B
:10128000F6EE005A20EE270AB0EE006AFFEE006A82
:1012900070EE077A67EEA57AFBFE677AA7EEC60ABC
:1012A000FDEEE77A17EE903A13F0010F07FE267A6B
:1012B00020EE070A704700BF704700BF1F2882B0AA
:1012C00009D8084B03EB400213F81030507843EA7A
:1012D000002002B0704701230C2043EA002002B036
:1012E000704700BF04180108143001F0D9B900BFDD
:1012F00038B500F1140504462DED028B284601F0A7
:101300008BF9284601F084F92846B0EE408A01F0B6
:101310007BF9D0ED007AF8EE677A88EE277ABDEC9B
:10132000028B84ED0E7A38BD143001F071B900BF24
:10133000F0B5032399B000270125129306462C4BE4
:1013400009A81595CDE90E7340F20453ADF840306D
:10135000284BCDE91357099301F0F4FD09A801F0DA
:10136000CDFE002835D1244B04AF04460090CDF8C3
:1013700042301023394604958DF820301F4BCDE9BB
:101380001650CDE906506846059302F045F808234B
:10139000009A01A909A8ADF804508DF806400994F7
:1013A0000295039300F0E4F800230EA93846302498
:1013B000049302F0F9FD03224FF07E5309A906F1D0
:1013C00014000B93CDE90942049A01F0EBF819B02F
:1013D000F0BD40F60132084B169704AFADF824205B
:1013E0000998CDF84230179500F082F8DCE700BF8D
:1013F0000402040403030001040604030704010BB0
:101400002DE9F04304462DED028B83B0002948D02E
:10141000012140F2011200230091ADF804208DF863
:101420000630304A0126304B271D304904F1290887
:10143000626040F20272A36040F60663E16004F16C
:1014400025092682A4F8252084F82760A4F82930ED
:1014500084F82B6003F02CF96946054648B304F183
:1014600030008DF8066003F08BF8072D34D104F1BD
:1014700014052046FFF75CFF284601F0C9F828460E
:10148000B0EE408A01F0C0F8D0ED007AF8EE677A4D
:1014900088EE277A84ED0E7A03B0BDEC028BBDE8AE
:1014A000F08340F2011300918DF80610ADF804307E
:1014B000B7E704F1300003F063F83946204602F044
:1014C000F3F9484601F03EFD404601F03BFD04F1D2
:1014D000120000F077F9CAE73946204602F0E4F935
:1014E000C5E700BF0508050905070506050A060644
:1014F00010B584B003460124ADF8040003A8ADF88C
:101500000C30ADF80E4001F01DFD214603A801F09E
:1015100003FE204602F068FF002103A801F0FCFD55
:10152000204602F061FF214603A801F0F5FD04B05A
:1015300010BD00BF10B5C2F3002384B00C46017C7F
:101540008DF80D2043EA4402FA2402238DF80C2082
:1015500003AA009401F0F6FF18B10124204604B05C
:1015600010BD04460A2002F03FFF204604B010BD23
:10157000034670B543F8042B044684B007C983E8DA
:101580000700A37983B91A210B461E22FA2523747A
:101590002046ADF80C20022303AA009501F0D2FFEB
:1015A00028B1012004B070BD1B210B46EDE70A20D5
:1015B00002F01AFF4FF4B85200950223ADF80C2048
:1015C000204603AA217C01F0BDFF0028E9D10A20B2
:1015D00002F00AFF41F2027200950223ADF80C20DE
:1015E000204603AA217C01F0ADFF0028D9D10A20B2
:1015F00002F0FAFE042200950223ADF80C202046EA
:1016000003AA217C01F09EFF0028CAD10A2002F023
:10161000EBFE062200950223ADF80C20204603AA1B
:10162000217C01F08FFF0028BBD10A2002F0DCFEF4
:1016300041F2082200950223ADF80C20204603AAAF
:10164000217C01F07FFF0028ABD10A20064602F082
:10165000CBFE0095022303AA217C2046ADF80C6046
:1016600001F070FF00289CD1304602F0BDFE0095CD
:1016700022790C232046002A8DF80C3003AA4FF063
:10168000020314BF622142218DF80D10217C01F06C
:1016900059FF002885D1304602F0A6FE2279D4E910
:1016A00002310B43DBB20AB943F0400362790AB15D
:1016B00043F020030E22FA258DF80D3020460095C8
:1016C00002238DF80C2003AA217C01F03BFF0028A7
:1016D0007FF467AF0A2002F087FE102200950223F4
:1016E000ADF80C20204603AA217C01F02BFF002836
:1016F0007FF457AF0A2002F077FE122100950223F3
:10170000ADF80C1003AA217C204601F01BFF002835
:101710007FF447AF0A2002F067FE0122092120462C
:10172000FFF708FF003818BF01203BE7F0B5102392
:1017300087B0234C012200250126002702A920465C
:101740000195CDE902234FF48052CDE9046709F0F9
:10175000ADFF642003F086FB02A94FF480522046BF
:10176000CDE9046702261027CDE9026709F09EFF44
:101770000322102302A92046CDE9022300230422DC
:10178000CDE904234FF4805209F090FF40F2322358
:10179000042202A9019310232046CDE90223019AD5
:1017A000012305924FF48052049309F07FFF40F625
:1017B0000601204609F09AFF284607B0F0BD00BF99
:1017C000209600241C4B00221C494FF0400C30B5E1
:1017D000054689B00220596007219A601A620124E7
:1017E000DA620A224FF4006EDC6006922022CDE914
:1017F000000104200821CDE9020103201021CDE9D8
:10180000040108206946C3E904024FF4C072181DA0
:10181000C3E906C24FF48052C3E909E209F01CFF94
:1018200038B92846FFF782FF003818BF012009B0F9
:1018300030BD204609B030BD1C9600244041005206
:10184000614A0021D0B513688EB00A91002B40F098
:10185000B9805E4B01214FF683700C241160022188
:10186000D3F8D4200026032742F48052C3F8D420B2
:10187000D3F8D42002F480520092009AD3F8E020EA
:1018800042F01002C3F8E020D3F8E02002F010028A
:101890000192019AD3F8E02042F04002C3F8E02020
:1018A000D3F8E02002F040020292029AD3F8E0203E
:1018B00042F00802C3F8E020D3F8E02002F008026A
:1018C0000392039AD3F8E02042F48072C3F8E02038
:1018D000D3F8E02002F480720492049AD3F8E02056
:1018E00042F08002C3F8E020D3F8E02002F080024A
:1018F0000592059AD3F8E02042F02002C3F8E020D8
:10190000D3F8E02002F020020692069AD3F8E020F5
:1019100042F00402C3F8E020D3F8E0300C9403F066
:10192000040307930323079A0B93CDE9080108A941
:10193000274805F01DF948F23712022308A9254867
:101940000C94CDE90823CDE90A6705F011F94CF2B2
:101950000372022308A920480C94CDE90823CDE99D
:101960000A6705F005F940F2FF62022308A91B4847
:101970000C94CDE90823CDE90A6705F0F9F84FF694
:101980000C72022308A916480C94CDE90823CDE96E
:101990000A6705F0EDF84FF63F02022308A9114847
:1019A0000C94CDE90823CDE90A6705F0E1F820227F
:1019B000022308A90A480C94CDE90A67CDE9082357
:1019C00005F0D6F80EB0D0BD189600240044025899
:1019D0000010025800180258000C0258002002584B
:1019E000001C0258001402582DE9F04FDFF8108453
:1019F00006460D46144608F114002DED028B89B001
:101A000000AF02F0C9FBD8F8143073B3D8F818301F
:101A1000D8F80490002B43690BBF4FF0080A4FF031
:101A2000100A4FF0020B4FF0040BB9F1000F2AD04F
:101A3000A200EA46012B02F1070222F00702ADEBF9
:101A4000020D6846ADEB020D694600F03F81022BA6
:101A500000F0D680002B6FD02246C847D5462437E9
:101A6000BD46BDEC028BBDE8F08FD8F81830002BD6
:101A7000F5D0D8F804904FF0080A4FF0020B4369F4
:101A8000B9F1000FD4D1FB61D8F80030BB61002B55
:101A9000E5D0D54802F0F2FB6B46BBF1020F78614E
:101AA00008EE103AFB6900F083816A465146A2EBCA
:101AB000C40295466200EA46B2FBFBF2AAEBC40000
:101AC00085460AEB8200EE46F861ADEB010DF86940
:101AD0000EEB820CC7F810C0EC46ADEB010D00EB2D
:101AE0008201CCF80400CCF8081001EB82013869BF
:101AF000E946CCF80C1000EB8201CCF800A001EB19
:101B00008202C9E900E0C9E90212012B00F06483F6
:101B1000022B00F06C82002B00F0808162084946A5
:101B20006046BB69984718EE103A24379D46BD467B
:101B3000BDEC028BBDE8F08F002C8DD01A46D8ED9D
:101B40000B6A9FEDB27A8446331D36F922E00CF120
:101B5000080C07EE90EA33F922E00232F8EEE77A59
:101B6000944267EE877A67EEA67A4CED027A07EE2A
:101B700090EAF8EEE77A67EE877A67EEA67A4CEDA0
:101B8000017AE2D8F9612246C847984ED8ED046A36
:101B90000020F9692B1D9FED9E7A9FED9E6ADFED77
:101BA0009E5A22E0F4EEC67AF1EE10FAC0F2C88432
:101BB00047F6FE72D1ED017A45F8202066EEA77A4D
:101BC000F4EEC77AF1EE10FA40F2F080F4EEC67A45
:101BD000F1EE10FAC0F2D58447F6FE7243F82020E9
:101BE0000230083184427FF639AFD1ED007A66EEDB
:101BF000A77AF4EEC77AF1EE10FAD3D83246D9E7D5
:101C0000002C3FF429AFD8ED0B6A84469FED787A1B
:101C10000022331D8E4656F822100CF1080C07EEF8
:101C2000901A53F822100232F8EEE77A944267EEE7
:101C3000877A67EEA67A4CED027A07EE901AF8EEF4
:101C4000E77A67EE877A67EEA67A4CED017AE2D8FA
:101C500071462246C7F81CE0C847664ED8ED046AB4
:101C60000020F9692B1D9FED6A7A9FED6A6ADFF803
:101C700094C120E0F4EEC67AF1EE10FAC0F2798455
:101C80003246D1ED017A45F8202066EEA77AF4EECF
:101C9000C77AF1EE10FA40F28780F4EEC67AF1EEE0
:101CA00010FAC0F25E84324643F820200230083138
:101CB00084427FF6D3AED1ED007A66EEA77AF4EED9
:101CC000C77AF1EE10FAD5D86246DAE7002C3FF475
:101CD000C3AED8ED0B6A86469FED477A4FF0000CF5
:101CE000331D56F82C200EF1080E82F40002A2F5E6
:101CF000000207EE902A53F82C200CF1020CF8EEAB
:101D0000E77A82F400026445A2F5000267EE877A62
:101D100067EEA67A4EED027A07EE902AF8EEE77AA1
:101D200067EE877A67EEA67A4EED017AD9D8F96127
:101D30002246C847314ED8ED046A0020F9692B1DB0
:101D40009FED337A9FED336ADFF8BCC01FE0F4EEFD
:101D5000C67AF1EE10FAC0F2FC833246D1ED017A78
:101D600045F8202066EEA77AF4EEC77AF1EE10FA75
:101D700018D9F4EEC67AF1EE10FAC0F2DA833246E0
:101D800043F820200230083184427FF667AED1ED5F
:101D9000007A66EEA77AF4EEC77AF1EE10FAD6D89A
:101DA0006246DBE76246EBE762467DE7324615E7CF
:101DB000A100D6466208073121F00701ADEB010D05
:101DC000EA46ADEB010D6946ADEB0E0D0AEB820064
:101DD000EC46ADEB0E0D01EB8202F861E946CCE971
:101DE00000A0C9E9001290E66C9600240280FFFF73
:101DF000000000300082FF7F0000003482FF7F007F
:101E000054960024007E00807E0080FF0000003891
:101E100004FF7FBF04FF7F3F00FEFF46002C00F061
:101E2000C982BBF1020FD8F8202000F0FA8279694C
:101E3000C7F8049002EB810E5FED0C5A8A00DCF8C3
:101E400008100EF104007A611A46DCF80C303B6190
:101E5000331DD7F810903D61FD69C7E902CB8C4670
:101E6000834636F92210D8ED0B7A06EE101A33F9B4
:101E7000221006EE901A3EF92210B8EEC66A07EE5E
:101E8000101AF8EEE66A3BF92210B8EEC77A26EE91
:101E9000256A66EEA56A27EE257A26EE276A66EEA3
:101EA000A76A27EE277A07EE901A51080232F8EE59
:101EB000E77A0AEB8100944280ED006A05EB81002D
:101EC00067EEA57AC0ED006A0CEB810009EB810199
:101ED00080ED007A98ED0B7A67EE877AC1ED007A93
:101EE000BFD8D7F804903D69D7E902CB60466208B5
:101EF000BB6949469847D8F828307A69D8ED046A12
:101F00001A441FED3D7A1FED3D6A2B1D904602F1EC
:101F1000040A5FED3F5A0022A84ED9E900EC51E0D7
:101F2000F4EEC67AF1EE10FAC0F2C78247F6FE7000
:101F300045F822000CEB0100D0ED007A66EEA77A9E
:101F4000F4EEC77AF1EE10FA4BD9F4EEC67AF1EE60
:101F500010FAC0F2BA8247F6FE70BBF1020F43F8E6
:101F600022002BD0D9F808000844D0ED007A66EEA4
:101F7000A77AF4EEC77AF1EE10FA36D9F4EEC67A03
:101F8000F1EE10FAC0F2CD8247F6FE7048F822005A
:101F9000D9F80C000144D1ED007A66EEA77AF4EE90
:101FA000C77AF1EE10FA1ED9F4EEC67AF1EE10FA05
:101FB000C0F2AF8247F6FE714AF822100232944214
:101FC0007FF6B1AD51080EEB81008900D0ED007AAB
:101FD00066EEA77AF4EEC77AF1EE10FAA0D8304692
:101FE000A6E73046B9E73146E6E73046CEE7002CB3
:101FF00000F0E081BBF1020FD8F8203000F0E18161
:102000007A69DCF8081003EB820EC7F8049093009D
:10201000DFED6B5A0EF1040000227B61DCF80C301E
:102020003B61331DD7F810903D61FD69C7E902CBD4
:102030008C46834656F82210D8ED0B7A07EE101A1C
:1020400053F82210B8EEC76A07EE101A5EF8221095
:10205000F8EEC76A07EE101A26EE256A5BF8221022
:10206000B8EEC77A66EEA56A26EE276A27EE257ACD
:1020700066EEA76A27EE277A07EE901A5108023219
:10208000F8EEE77A0AEB8100944280ED006A05EBF6
:10209000810067EEA57AC0ED006A0CEB810009EBC8
:1020A000810180ED007A98ED0B7A67EE877AC1EDB9
:1020B000007ABFD8D7F804903D69D7E902CB6046D3
:1020C0006208BB6949469847D8F828307A69D8ED44
:1020D000046A1A449FED3E7A9FED3E6A131D9246B4
:1020E000DFF8E4C00022FB612B1D364ED9E9008EDB
:1020F0004EE0F4EEC67AF1EE10FAC0F2FC81304602
:1021000045F822000EEB0100D0ED007A66EEA77ACA
:10211000F4EEC77AF1EE10FA49D9F4EEC67AF1EE90
:1021200010FAC0F2EF813046BBF1020F43F82200F3
:102130002AD0D9F808000844D0ED007A66EEA77AD4
:10214000F4EEC77AF1EE10FA35D9F4EEC67AF1EE74
:1021500010FAC0F2C98130464AF82200D9F80C00C2
:102160000144D1ED007A66EEA77AF4EEC77AF1EE7B
:1021700010FA1ED9F4EEC67AF1EE10FAC0F2AD8173
:102180003146F86940F82210023294427FF6CBAC17
:10219000510808EB81008900D0ED007A66EEA77A3D
:1021A000F4EEC77AF1EE10FAA3D86046A8E76046CD
:1021B000BAE76146E5E76046CEE700BF0280FFFF71
:1021C000000000300082FF7F007E008000000034AD
:1021D00004FF7FBF04FF7F3F002C00F0EB807A6993
:1021E0000021D8F82030C7F8109003EB820ED7F802
:1021F0001C909300FD610EF104021FED0C6A7B61DF
:10220000331D154656F821204808D8ED0B6ABBF15E
:10221000020F82F40002A2F5000207EE902A53F8A2
:10222000212082F40002B8EEE77AA2F5000227EE40
:10223000067A07EE902A0AEB8002F8EEE77A27EE9C
:10224000267A67EE867A82ED007A09EB80024FEA01
:10225000800067EEA67AC2ED007A27D05EF82120D2
:1022600082F40002A2F5000207EE902A55F8212020
:1022700082F40002B8EEE77AA2F5000227EE067AB1
:1022800007EE902ADCF80820F8EEE77A024427EE01
:10229000267A67EE867A82ED007A98ED0B7ADCF882
:1022A0000C2067EE877A0244C2ED007A02318C423C
:1022B000A8D8D7F8109060466208BB694946FD6906
:1022C0009847D8F828307A69D8ED046A1A441FED87
:1022D000407A1FED406A131D9246DFF8C4C2002207
:1022E000FB612B1DAB4ED9E9008E4EE0F4EEC67AB1
:1022F000F1EE10FAC0F2C580304645F822000EEB30
:102300000100D0ED007A66EEA77AF4EEC77AF1EE1E
:1023100010FA49D9F4EEC67AF1EE10FAC0F2BF8095
:102320003046BBF1020F43F822002AD0D9F808004A
:102330000844D0ED007A66EEA77AF4EEC77AF1EEA3
:1023400010FA35D9F4EEC67AF1EE10FAC0F2AE808A
:1023500030464AF82200D9F80C000144D1ED007A49
:1023600066EEA77AF4EEC77AF1EE10FA1ED9F4EE13
:10237000C67AF1EE10FAC0F28B803146F86940F867
:102380002210023294427FF6CEAB510808EB810056
:102390008900D0ED007A66EEA77AF4EEC77AF1EE06
:1023A00010FAA3D86046A8E76046BAE76146E5E7B9
:1023B0006046CEE7224649466046BB699847FFF72C
:1023C000B2BBC7F810B0002298ED0B6A331DDFEDE9
:1023D000726AD7F81CB0786956F8221007EE901A86
:1023E00053F82210B8EEE77A07EE901A510802323D
:1023F000F8EEE77A27EE267A0AEB810E94420BEB91
:10240000810167EEA67A27EE067A67EE867A8EED70
:10241000007AC1ED007ADFD88300D7F810B07B6175
:102420004DE61A46C7F810B098ED0B6A331DDFED84
:102430005B6AD7F81CB0786936F9221007EE101ADB
:1024400033F9221007EE901AB8EEC77A510802321B
:10245000F8EEE77A27EE267A0AEB810E94420BEB30
:10246000810167EEA67A27EE067A67EE867A8EED10
:10247000007AC1ED007ADFD88300D7F810B07B6115
:1024800034E5F0EE675AFEEEE45A15EE900A34E7B2
:10249000F0EE675AFEEEE45A15EE901A6EE7F0EE93
:1024A000675AFEEEE45A15EE900A3AE7F0EE675AE4
:1024B000FEEEE45A15EE900A4BE767EEA57AFDEEC4
:1024C000E77A17EE900A00B232E567EEA57AFDEEE4
:1024D000E77A17EE900A00B23FE5F0EE675AFEEE9B
:1024E000E05A15EE901A4CE6F0EE675AFEEEE05A0E
:1024F00015EE900A30E6F0EE675AFEEEE05A15EE61
:10250000900AFDE5F0EE675AFEEEE05A15EE900AED
:102510000AE667EEA57AFDEEE77A17EE901A09B2A1
:102520004AE567EEA57AFDEEE77A17EE900A00B26B
:102530002CE5F0EE675AFEEEE45A15EE902A1FE401
:1025400067EEA57AFDEEE77A17EE902A12B2FFF752
:1025500031BBF0EE675AFEEEE45A15EE902AFFF713
:10256000FDBBF0EE675AFEEEE05A15EE902AFFF73B
:102570009BBBF0EE675AFEEEE05A15EE902AFFF78D
:1025800080BB67EEA57AFDEEE77A17EE902A12B2CD
:10259000FFF724BB82FF7F000000003000000038FE
:1025A0007E0080FF30B5154C154685B0046004F1FF
:1025B000080C01AB07C98CE80700D4ED047AF5EEEE
:1025C000C07A83E80700F1EE10FA14DDF7EE006A36
:1025D00086EEA77A84ED0B7A6DB1204640F8145F41
:1025E00001F0DAFD064903690020064AE1616262F2
:1025F000E36005B030BD012005B030BD5496002425
:10260000002000300000003000680830704700BF34
:102610000068143001F020BE70B504688AB06369A8
:10262000E160CBB104F11405284601F0B5FD844604
:10263000EE46E668BCE80F00AEE80F00BCE80F000D
:10264000AEE80F009CE803008EE8030069462846C8
:10265000049601F0A9FCF8B9A069D8B104F11805F5
:10266000284601F099FD8446EE46E468BCE80F0078
:10267000AEE80F00BCE80F00AEE80F009CE80300D6
:102680008EE8030069462846049401F08DFC00386A
:1026900018BF01200AB070BD01200AB070BD00BF94
:1026A00030B5046883B00D46A3694BB1A368002020
:1026B000A26A216A9B00009004F1180001F06EFDEF
:1026C000A3680748626A9B00E169009004F1140066
:1026D00001F064FD0020C4E9005003B030BD00BF2C
:1026E000E9190008024B0022C3E90522704700BF28
:1026F0005496002470B5044682B0C1F30726CDB2CB
:10270000ADF8041001F06EFE4FF480724FF001231B
:102710002060A01DA571A280E671A36002B0BDE893
:10272000704000F00FBC00BF38B5044601F05AFEFF
:10273000002223682271834210D00122A57AE37A15
:10274000954020602271A01D6DB243B900F0D6FC07
:1027500040B22843C0B27F28A0720AD038BD00F032
:10276000CDFCB0FA80F040092843C0B27F28A072A7
:10277000F4D101F037FE07EE900AF8EE677AC4ED67
:10278000037A38BD704700BF254A937803B9704774
:102790000B68002BFBD04FF0000C70B56546A3EB27
:1027A0000C04032C34D910F80C60844416F00E0F7E
:1027B00006F00F042CD00F2C2AD0144494F81048A3
:1027C00034B3013C0CF1010E5EFA84FED2F80434FD
:1027D000D2F80844013B1B1BC3F30903F3B11CF8F7
:1027E000016FD2F80434D2F80844013B1B1BC3F339
:1027F0000903002BF5D0D2F80834F44503F10104A5
:102800001344C4F309041E71C2F80844DED10B68F6
:102810000435ADB29D42AC46C1D370BD9370F6E7AE
:10282000849600244FF0010CCAB20F4BA2EB0C02AD
:10283000B2FA82F210B552090C4C82B00460204604
:102840006170114683F800C001920AF0D1FB0023A9
:102850000A20A37001F0C8FD019A2046044902B085
:10286000BDE810400AF04ABCB4B9002484960024A4
:1028700089270008012203689A7070470368D3F81B
:102880000804D3F80434C01AC0F30900704700BF2D
:102890000268D2F80834D2F804145B1AC3F30903AF
:1028A000002BF6D0D2F80434D1180133C3F3090356
:1028B0000879C2F80434704703689878704700BFFD
:1028C0000368D3F80424C3F80824704710B5104BEC
:1028D000104C03F1100E04F5016C0FCB8CE80F00C7
:1028E0009EE80F0004F5026C8CE80F000A484FF6D2
:1028F0000F010723094AC4F830082046A4F8341809
:1029000084F836380649BDE810400DF053BB00BFCF
:10291000C41701088496002480707FF00000002412
:102920008527000882B04FF0000C0323ADF8041097
:10293000BDF8042080F810C00280438002B07047C8
:102940002DE9F04FBE4E00258FB0BE4C037006F14E
:1029500040034260074601928846202229463046BD
:10296000C4F85831C4F85461CDE90355CDE9055593
:10297000CDE90755CDE90955CDE90B550DF01AFF05
:102980002022294604F59970C4F82151C4F8255134
:10299000C4F82951C4F82D510DF00CFF019B84F8A7
:1029A000385284F820317A68002A5FD02B4641469D
:1029B000B64604F5907599464FF0010A03EB0310F3
:1029C000D1F800B0D1F804800133D1F808C0221842
:1029D000CE6844F800B0C2F80480C2F808C0D660DF
:1029E000087C2EF8029B10740A7C05F8012F002A3F
:1029F00069D07A68113184F838A29A42DED84FF44F
:102A0000802291489DF8043008214FF000084FF0D3
:102A10000009C4F874310023C4E957020122C4F844
:102A2000643184F87031C4E95A2194F83812C4E949
:102A3000608981B3C4F88821002284F8713184F858
:102A400078313B78C4E96322A3B30122002001213D
:102A5000013B84F89421C4E96801082B2CD8DFE8F5
:102A600003F0ABB0B5BABFC4C9CFD6009DF80430EF
:102A70000121C4F86421C4F874314FF4802384F830
:102A80007021714AC4E9572308230022C4E95A136C
:102A90000023C4E960230123002284F8713100235C
:102AA00084F878310323C4F888313B78C4E9632281
:102AB000002BCAD184F89431644802F00BFE03461F
:102AC00038B1FFBEFEE77A6811319A423FF676AF21
:102AD00095E703A95D48039302F05AFF05460028D5
:102AE00068D1022240F2FF73CDE9082300230422BB
:102AF000CDE90A2394F82031002B00F0D5804FF067
:102B0000060921E0022B00F08980012B40F0C480EF
:102B10009AF80130012B00F0C180002B4C4B18BFFC
:102B2000002306A94948CDE9063902F0FFF900283B
:102B300040F0BF80013594F82031EDB2AB4240F255
:102B4000B380444B53F825902FB207EB071704EBE3
:102B5000070A504600F0F6F905EB051323441B7CE9
:102B6000042B7DDC022B00F3918000F08D80631933
:102B7000002283F81021E35D002BC3D19AF80130C5
:102B8000062B00F08580072B00F08A80022B00F0D6
:102B90009680032B00F09580002B00F09680012B8F
:102BA00000F09180042B00F09280052B2A4B18BF77
:102BB0000023B6E7FFBEFEE703224023C4E96623F5
:102BC0007AE707226023C4E9662375E70F22802392
:102BD000C4E9662370E71F22A023C4E966236BE7DC
:102BE0003F22C023C4E9662366E77F22E023C4E9CD
:102BF000662361E7FF224FF48073C4E966235BE735
:102C000040F2FF124FF49073C4E9662354E740F298
:102C1000FF324FF4A073C4E966234DE79AF8013000
:102C2000042B37D0052B3DD0002B40D0012B42D0B8
:102C3000022B42D0032B094B18BF002371E700BFC2
:102C400000400030C09E0024002002401CA0002450
:102C50000002B025441801080000B84F002090364B
:102C600003233E1D04EB05084FF0000B264488F8B3
:102C7000103130460BF1010B00F064F998F8103177
:102C800004365B45F5DC76E70123EAE70223E8E753
:102C9000104B46E7104B44E7002342E70F4B40E759
:102CA0000F4B3EE70F4B3CE70FB0BDE8F08F0E4BEC
:102CB00037E7FFBEFEE70D4B33E70D4B31E70D4B1A
:102CC0002FE70D4B2DE70D4B2BE70D4B29E70D4B58
:102CD00027E700BF0800900C1000C0102000F0147F
:102CE0008000501D000180210004002A0008302EC1
:102CF000001060320040C03A0080F03E00005247B1
:102D0000000021430000844B38B5094C40F2FF72AB
:102D10004FF0011104F5AE75284602F0E7FD94F876
:102D20002021D4F854112846BDE8384002F052BBA7
:102D3000C09E0024064B0F29D3F8543198BF03EBF3
:102D400041031B8800EE103ABBEEC80A704700BF73
:102D5000C09E0024214B02689A4200D07047204A4E
:102D600000232048D2F8D81030B51F4C41F0200184
:102D700083B0C4F8C001092004F5E075C4E971030B
:102D80004FF48060C2F8D810D2F8D8204FF4006118
:102D9000C4E9733094F8380202F02002C4F8D41168
:102DA0004FF40051984201922846C4F8D811C4E962
:102DB0007833019B14BF00234FF48073C4F8DC31D7
:102DC00003F00CF808B1FFBEFEE704F5AE73C4F8DB
:102DD000A851C4F8F83103B030BD00BF0020024054
:102DE0000044025840000240C09E0024014803F005
:102DF0006DBB00BF80A0002402682DE9F84F4B4B4B
:102E00009A4201D0BDE8F88F494D95F83832002B31
:102E1000F8D095F82031002B77D0002405F10C096B
:102E200005F5997605F59077A04613E003F00101CA
:102E300017F811BCA9F1080000F06EF9BBF1010F01
:102E400025D895F82031013409F111090236A2B2D2
:102E500093422BD917F8012F002AF4D0D5F854311A
:102E60000021327833F81400D5F8583103EB0413FD
:102E700023F81200338801339BB233805FFA83FA60
:102E80003A789A42D2D88A46A6F80080D0E7CAF3A8
:102E90004001A9F1040000F03FF9BBF1020FCAF3B1
:102EA0008001CED0484600F037F9CAE7002395F8F4
:102EB0003802204909229842C5F8C8314FF4806091
:102EC000C5F8C011C5F8C4214FF400614FF4005299
:102ED000C5F8CC3108BF4FF48073C5F8D821C5E9D7
:102EE000740100221448C5E97732C5F8E42102F0E4
:102EF00075FF08B1FFBEFEE795F82021D5F8541103
:102F00000E48BDE8F84F02F065BA0A4909224FF4AD
:102F10008060C5F8C831C5E970124FF400614FF404
:102F20000052C5E97330C5E97512DAE700200240A6
:102F3000C09E00244000024080A000241CA0002469
:102F4000704700BF8378022B30B504468FB037D06E
:102F5000032B33D0012B31D000230A93E378012BCC
:102F60002AD0022B28D000230B93002320460C9359
:102F700001F056FE0546204601F05AFE23780990DE
:102F8000082B13D8DFE803F01F3245586B7E91A45D
:102F90000500594BD3F8E02042F48072C3F8E020DA
:102FA000D3F8E03003F480730893089B09A92846FE
:102FB00003F0DEFD0FB030BD0B93D6E70A93CDE7EB
:102FC00011230A93CAE74C4B09A92846D3F8E020FD
:102FD00042F00102C3F8E020D3F8E03003F001032F
:102FE0000093009B03F0C4FD0FB030BD424B09A914
:102FF0002846D3F8E02042F00202C3F8E020D3F8DC
:10300000E03003F002030193019B03F0B1FD0FB028
:1030100030BD394B09A92846D3F8E02042F004021C
:10302000C3F8E020D3F8E03003F004030293029BDE
:1030300003F09EFD0FB030BD2F4B09A92846D3F8F1
:10304000E02042F00802C3F8E020D3F8E03003F0BB
:1030500008030393039B03F08BFD0FB030BD264B99
:1030600009A92846D3F8E02042F01002C3F8E02076
:10307000D3F8E03003F010030493049B03F078FDD1
:103080000FB030BD1C4B09A92846D3F8E02042F010
:103090002002C3F8E020D3F8E03003F020030593CA
:1030A000059B03F065FD0FB030BD134B09A9284601
:1030B000D3F8E02042F04002C3F8E020D3F8E0303B
:1030C00003F040030693069B03F052FD0FB030BDA2
:1030D000094B09A92846D3F8E02042F08002C3F842
:1030E000E020D3F8E03003F080030793079B03F060
:1030F0003FFD0FB030BD00BF0044025838B5054653
:1031000001F08EFD0446284601F092FD014620465E
:10311000BDE8384003F034BF70B506460D4601F0F7
:103120007FFD0446304601F083FD2A1E01462046FD
:1031300018BF0122BDE8704003F028BF002312220F
:1031400070B586B0CDE9022304930368032B01D840
:1031500004230593061D841D304601F061FD0546DC
:10316000304601F065FD034601A92846019303F0AE
:10317000FFFC204601F054FD034620461C4601F0AA
:1031800057FD01A903462046019303F0F1FC06B068
:1031900070BD00BF634A0368934210B58CB028D05D
:1031A000614A934258D0614A934200F09480604A49
:1031B000934201D00CB010BD5E4C5F48D4F8E030B3
:1031C00043F00203C4F8E030D4F8E03003F0020327
:1031D0000A930A9BFFF7B2FFD4F8F43043F0800360
:1031E000C4F8F430D4F8F43003F080030B930B9B55
:1031F000E0E7504C5148D4F8E03043F00203C4F803
:10320000E030D4F8E03003F002030193019BFFF7B4
:1032100095FFD4F8E83000221F2043F40013114634
:10322000C4F8E830D4F8E83003F400130293029BAA
:10323000D4F8D83043F00103C4F8D830D4F8D830EB
:1032400003F001030393039B02F016FC1F200CB054
:10325000BDE8104002F04EBC364C3948D4F8E0309E
:1032600043F08003C4F8E030D4F8E03003F080038A
:103270000493049BD4F8E03043F00203C4F8E03038
:10328000D4F8E03003F002030593059BFFF756FFE7
:10329000D4F8E8300022212043F480031146C4F81A
:1032A000E830D4F8E83003F480030693069BD4F8A2
:1032B000D83043F00103C4F8D830D4F8D83003F044
:1032C00001030793079B02F0D7FB21200CB0BDE858
:1032D000104002F00FBC1B48FFF730FF154B0022D7
:1032E0004820D3F8E840114644F40004C3F8E8400D
:1032F000D3F8E84004F400040894089CD3F8D840BC
:1033000044F00104C3F8D840D3F8D83003F00103E7
:103310000993099B02F0B0FB48200CB0BDE81040B7
:1033200002F0E8BB0054004000580040005C004040
:10333000001C00580044025888A3002400A1002467
:10334000D8A10024B0A200242DE9F0431A4B87B085
:1033500000254FF010099E46EC46184BFF22E04630
:1033600067461A700EF118060EF13004CDE90055CB
:10337000CDE90255ADF80090BCE80F00CDE9045549
:10338000AEE80F009CE803000095ADF800908EE8D1
:103390000300B8E80F000FC69CE803000095ADF8E5
:1033A000009086E803000FCF0FC49CE8030084E878
:1033B000030007B0BDE8F08314000024FCA0002443
:1033C00010B5EFF3108472B6084B1A78120602D5C6
:1033D00004B962B610BD1B78D82205485BB202FB67
:1033E0000300143003F072F8F2E700BFFCA00024E1
:1033F00000A10024014804F061BC00BF8CA100249E
:10340000014804F05BBC00BF64A20024014804F042
:1034100055BC00BF3CA300242DE9F0430F68D8241D
:103420003F4D85B007FB04F4032F05EB0403036055
:1034300040DCCB680E46012B3CD84DD04FF0D8086D
:10344000B646DFF8FC9008FB0758BEE80F00C446FC
:10345000ACE80F00DEF800300DF1100ECCF80030B3
:10346000D8F808C099E80F000EE90F000EEB8703AB
:10347000BCF1010F53F8103CC8F88C3031D0BCF1CE
:10348000020F42D0BCF1000F35D0317C8C34D823F0
:10349000002201202C4403FB07534900C3E9260204
:1034A000C3F894102046C3E92822C3E92A2204F075
:1034B000F7F918B1012005B0BDE8F08301462046B8
:1034C00004F008FC0028F5D10146204604F02CFC4D
:1034D000003818BF0120EEE70B7C103B672BADD9FD
:1034E000E8E701F0E3F80F4B98420CBF0E4B0F4B8F
:1034F000C8F89030C9E701F0D9F80A4B98420CBFE0
:103500000B4B0C4BC8F89030BFE701F0CFF8054BE0
:1035100098420CBF084B094BC8F89030B5E700BF84
:1035200000A10024000E27072D0FB0303211D0204B
:103530005F4390608A62E030200BA0101A0980106F
:10354000E41701082DE9F041D0F8008082B00D4663
:1035500017461E4608F18C04204604F0B7FB2028CD
:10356000FAD1D8F80C3073B96D002046089C334668
:103570003A46A9B2009404F0E9F9003818BF0120D6
:1035800002B0BDE8F081089B32463946204604F07F
:10359000B1FAF2E7044B10221A7483F8E82083F89A
:1035A000C02183F89822704700A1002430B5002381
:1035B00095B04FF48071062204460B930692139344
:1035C000CDE90C13CDE90E33CDE9113301F070F8DC
:1035D00007282BD004F1100541F2883206A92846AD
:1035E00005F0F4FA28B10123184684F85C3015B0D0
:1035F00030BD0222022306A92846CDE9002310226D
:103600000123CDE9022300224FF48003CDE90423F6
:1036100005224FF0807306926A460F9341F2883379
:1036200005F040FC0028DED115B030BD0323012099
:1036300084F85C3015B030BD70B50023A4B04FF0F5
:1036400080724FF480750446ADF806300D93CDE9D5
:1036500010320122CDE90E53CDE91223CDE9143306
:10366000002943D0F02300F1100508AEADF8063074
:10367000C02341F2883231462846089305F0A6FA65
:1036800028B10123184684F85C3024B070BD41F2A3
:1036900088320DF10601284605F002FB034600289A
:1036A000EFD105224FF480711E93284616924FF0F9
:1036B00080721B9321931F9202AA9FED1F7BCDE97D
:1036C0001C13CDE922338DED027B9FED1D7B41F272
:1036D000883316A98DED047B9FED1B7B8DED067B5A
:1036E00005F0E0FB0028CCD124B070BD00F110053E
:1036F00008AE612341F2883231462846089305F02E
:1037000065FA0028BDD141F288320DF10601284644
:1037100005F044FB0028B4D1BDF80630204623F064
:10372000780343F04003ADF80630FFF73FFF002871
:103730009ED0A6E7AFF3008000000000010000006B
:103740001000000001000000000000000000400028
:103750002DE9F04F00234FF4807501264FF080785B
:1037600004462DED028BABB08DF8073013932193F7
:10377000299314950E96CDF85C80CDE91533CDE9EB
:103780001863CDE91A33CDE92253CDE92433CDE9CD
:10379000273306231C9300F08BFF072808D004F181
:1037A000100741F288321CA9384605F00FFA40B1E3
:1037B0000123184684F85C302BB0BDEC028BBDE8C9
:1037C000F08F4FF0020A4FF0020B4FF0050941F263
:1037D000883308AA1CA93846CDF89480CDF870909B
:1037E0009FED2D8BCDE908AB4FF0000A4FF4800B15
:1037F0008DED0A8BCDE90CAB05F054FB0028D7D139
:1038000041F2883238460EA905F0E0F90028CFD100
:10381000402341F288320DF1070138468DF8073018
:1038200005F03EFA0028C3D141F288330EA902AA5E
:103830003846CDF83890CDF85C809FED197B8DED42
:10384000048BCDE906AB8DED027B05F02BFB034627
:103850000028ADD1CDF870904FF00109CDF89480DB
:103860004FF00008219308AA29931CA938462295F5
:10387000CDE92333CDE9273341F288338DED0A8B2F
:10388000CDE90CABCDE9088905F00CFB002893D0FD
:10389000304684F85C608FE71000000001000000F3
:1038A00040000000400000002DE9F043624CA3B04E
:1038B0000D46046000F0FCFE072800F0A98028688F
:1038C00023466968AA6807C31E46AB8926F8043BED
:1038D0003046257B677B05F05BF9E0B9574B012D3E
:1038E0004FF00108E061236114BF4FF480134FF4DF
:1038F0000003C4E9058893FAA3F3B3FA83F34FF402
:103900008079013BC4F82490C4E90B00304623625F
:1039100005F0D2F838B10122134684F85C2018462D
:1039200023B0BDE8F08366230B90139041F28832F8
:1039300006A90693CDE90C90CDE90E00CDE9110062
:10394000304605F043F90028E5D1992341F2883249
:1039500006A93046069305F039F90028DBD1052386
:103960001C9019906A4614934FF08073219014A90B
:103970001D9341F288339FED2A7BCDE91A90CDE962
:103980001F008DED007B9FED287B30468DED027B87
:103990009FED277B8DED047B05F084FA0028BAD1DA
:1039A00029462046FFF748FE0028B4D12046FFF7FD
:1039B000CFFE03460028AED1002FB0D11893304679
:1039C0000027002606AA14A9CDF86890CDE91F3378
:1039D000EB2314934FF440631B934FF4005317935E
:1039E0004FF440431C93A0231693062319934FF0E2
:1039F000805321934FF04073CDE906671D9305F086
:103A0000C9FA034600288AD0434684F85C8086E7DA
:103A100001230322184684F85C2023B0BDE8F0831C
:103A20000000000001000000100000000100000084
:103A3000000000000000400060A40024005000527C
:103A40002DE9F04F8FB0414B0024026800AF9A423D
:103A50007C63C7E90944C7E90B4403D03C37BD4642
:103A6000BDE8F08F3A4B40F609213A48EB46D3F8CF
:103A7000D42007F11C0607F1220A4FF0020942F494
:103A800080424FF00308C3F8D420D3F8D42002F4C6
:103A90008042BA60BA68D3F8E02042F04002C3F82E
:103AA000E020D3F8E02002F04002FA60FA68D3F890
:103AB000E02042F02002C3F8E020D3F8E02002F03A
:103AC00020023A613A69D3F8E02042F01002C3F8CC
:103AD000E020D3F8E02002F010027A617A69D3F88E
:103AE000E02042F00202C3F8E020D3F8E030F861B1
:103AF00003F002033984BB61174B7B60BB697B68B1
:103B000053F8040F7B6001F08BF87B68054618685A
:103B100001F08EF816F8013B786207F1240128467F
:103B2000C7F830807B63C7E90A9403F021F8564553
:103B3000E5D100225C20114601F09EFF5C2001F0DF
:103B4000D9FF3C37DD46BD46BDE8F08F005000523E
:103B5000004402580A0A0909BCA40024114B026857
:103B60009A4200D07047104A70B5D2F8D4300F4C4A
:103B700023F4804304F11806C2F8D43054F8040F3B
:103B800001F04EF80546206801F052F8014628463B
:103B900003F02EF9B442F1D15C20BDE8704001F091
:103BA000B7BF00BF0050005200440258BCA400241C
:103BB000014805F07BBA00BF70A40024084B1A1D11
:103BC000981D03F1080110B49C1C9A6603F10A02C7
:103BD000C3E91834C3E91B015DF8044B5A67704709
:103BE00060A4002438B5036871B9026A00F12805A1
:103BF00000F5AC74012A0CBF002140218BBB1D4B8A
:103C00005722C0F858310DE0426A00F1C00500F5B6
:103C1000E874012A0CBF00214021EBB1164B5A2257
:103C2000C0F8D03100232046C4E901214FF480526E
:103C30004FF48061636262614FF48042C4E90331F2
:103C40004FF48073C4E906234FF40033236202F07B
:103C5000C5F858B1FFBEFEE7084B5822C0F8D03176
:103C6000E0E7074B5922C0F85831DBE7C5E92044AB
:103C7000A56338BD100002407000024028000240D9
:103C8000580002402DE9F043821D05468BB0031D0C
:103C900005F10A010830CDE9052305F10C02AB69F5
:103CA000CDE907010992002B3DD0EB69B3FA83F807
:103CB0004FEA58180123022205AE0AAF4FF0060959
:103CC0000393CDE9012356F8044B2B7922789342D4
:103CD00016D02B68F3B1012B02D1F2B10A23049361
:103CE000204600F0A5FF03462046009300F098FF11
:103CF000694602F03DFFBE42E5D10BB0BDE8F0835E
:103D0000697963789942E4D1B8F1000FF3D02B6858
:103D1000002BE0D1CDF81090E2E76378022B14BFBE
:103D20000A230823DBE74FF00108C3E7534A03687F
:103D3000934230B505468BB055D02032934252D0D5
:103D40004F4A934204D02032934201D00BB030BD91
:103D50004C4C4D48D4F8E03043F00103C4F8E03057
:103D6000D4F8E03003F001030593059BD4F8E0306C
:103D700043F00803C4F8E030D4F8E03003F008035F
:103D80000693069BD4F8E03043F04003C4F8E030DB
:103D9000D4F8E03003F040030793079BD4F8F030E9
:103DA00043F40003C4F8F030D4F8F03003F4000317
:103DB0000893089BFFF766FFD4F8D830296843F0D2
:103DC00001032F4A3048C4F8D830891AD4F8D830C3
:103DD00018BF012103F001030993099B0BB0BDE853
:103DE0003040FFF7FFBE274C2848D4F8E03043F0BE
:103DF0000103C4F8E030D4F8E03003F0010300938D
:103E0000009BD4F8E03043F01003C4F8E030D4F85D
:103E1000E03003F010030193019BD4F8E03043F04D
:103E20004003C4F8E030D4F8E03003F040030293DC
:103E3000029BD4F8F03043F48003C4F8F030D4F897
:103E4000F03003F480030393039BFFF71BFFD4F8C8
:103E5000D830296843F00103084A0C48C4F8D83028
:103E6000891AD4F8D83018BF012103F00103049354
:103E7000049B0BB0BDE83040FFF7B4BE04580140CE
:103E8000045C01400044025834A70024D8A4002454
:103E9000014802F01BBB00BF30A60024014802F01D
:103EA00015BB00BFA8A60024014802F00FBB00BF4D
:103EB0008CA80024014802F009BB00BF04A900241B
:103EC0001A4A0368934210B40BD02032934208D0B0
:103ED000174A934216D02032934213D05DF8044B18
:103EE0007047144B0022D3F85442C3F85822002CD8
:103EF000F4D0D3F84802D3E9931223465DF8044B7B
:103F0000520818470B4B0022D3F8B044C3F8B4242E
:103F1000002CE3D0D3F8AC24D3F8A814D3F8A4042D
:103F2000520823465DF8044B184700BF045801406F
:103F3000045C0140D8A40024184A0368934210B4DA
:103F40000BD02032934208D0154A934217D020322A
:103F5000934214D05DF8044B7047124BD3E994247C
:103F60005208C3F85822002CF4D0D3E9920123461A
:103F700001EB820100EB82005DF8044B1847094B0E
:103F8000D3F8AC24D3F8B0445208C3F8B424002CBE
:103F9000E0D0D3F8A814D3F8A404E8E7045801400B
:103FA000045C0140D8A400242DE9F04F0C684FF4C4
:103FB0001776754F87B004FB06F6012C07EB060A4F
:103FC000C0F800A000F3A0800D468E464FF0000818
:103FD000D44669A3D3E9002369A1D1E90001CDE961
:103FE000022306ABCAF8508203EB8403CDE9040137
:103FF00053F810BC53F8083CCAE992880193BEE814
:104000000F00ACE80F00BEE80F00ACE80F00019B0A
:104010009EE80300CAF828B0CAF8C0308CE8030054
:104020002B69042B0CD8DFE803F0737D8791030024
:104030004FF41773554A03FB04739A64C3F8E020E6
:10404000AA692B6A002A43D0002B4FF4177308BFCC
:10405000022203FB047318BF0322DA6201221A63EF
:10406000EA696B6A002A40D1191E4FF4177318BF12
:10407000012103FB0473C3E931126B69022B05D8DC
:10408000434A12F80380434A52F823904FF41773BF
:1040900006F128004246494603FB047400233844D5
:1040A00063646363E365C4F8DC30C4F8CC30C4F8FF
:1040B000F430C4E90F33C4E91533C4E93533C4E936
:1040C0003B33022307F066F8002849D0FFBEFEE725
:1040D000191E4FF4177318BF012103FB0473C3E9C2
:1040E0000B12EA696B6A002ABED0002B4FF41773DB
:1040F00008BF022203FB047318BF0322C3F8C420C5
:104100000122C3F8C820B8E7012007B0BDE8F08F4E
:104110004FF417734FF4FA5203FB04739A64C3F815
:10412000E0208DE74FF417734FF47A5203FB0473CA
:104130009A64C3F8E02083E74FF417734FF4FA4210
:1041400003FB04739A64C3F8E02079E74FF4177314
:104150004BF6803203FB04739A64C3F8E0206FE7E8
:1041600006F1C000022342464946384407F012F8DF
:104170000028CAD0FFBEFEE704580140045C01409D
:1041800024580140245C0140D8A400240077010099
:1041900084180108881801080068704770B5046821
:1041A00082B015460E46C4F85032C4E99212069AFF
:1041B000C4F85422A269012A26D0626A012A9AB25E
:1041C00011D0294604F1C000019207F09FF8236A3C
:1041D000019A012B10D0294604F1280007F096F827
:1041E000002002B070BD04F1C000019207F020F978
:1041F000236A019A012BEED1314604F1280007F021
:1042000017F9002002B070BD226A012A9AB211D0BB
:10421000294604F12800019207F078F8636A019AB0
:10422000012B10D0294604F1C00007F06FF80020E0
:1042300002B070BD04F12800019207F0F9F8636A3A
:10424000019A012BEED1314604F1C00007F0F0F8DD
:10425000002002B070BD00BF03681B69042B05D8A5
:10426000044A02EB830393ED000A70479FED020AB4
:10427000704700BF9418010800803B470368D3F8DB
:1042800058027047704700BF08B500F0D9FDBDE87F
:10429000084001F0B9BC00BF064808B503680BB17F
:1042A00002F078FE044803681BB1BDE8084003F043
:1042B0001FBE08BDA8B10024A0AD0024064808B563
:1042C00003680BB102F066FE044803681BB1BDE849
:1042D000084003F00DBE08BDA8B10024A0AD002425
:1042E000064808B503680BB102F054FE04480368A1
:1042F0001BB1BDE8084003F0FBBD08BDA8B1002418
:10430000A0AD0024364BDA6A520062D59A6A9A6AE6
:104310009A6A9B6A180600D500BE314B9B6A9906C3
:1043200000D500BE2E4B9B6ADA0600D500BE2C4B92
:104330009B6A1B0700D500BE294B9B6A980700D5D6
:1043400000BE274B9B6AD90700D500BE244B9B6A51
:104350001A0400D500BE224B9B6A9B0400D500BE08
:104360001F4B9B6AD80400D500BE1D4B9B6A1905E4
:1043700000D500BE1A4B9B6A5A0500D500BE184BEB
:104380009B6A9B0500D500BE154B9B6AD80500D5DE
:1043900000BE134B9B6A990100D500BE104B9B6A6F
:1043A000DA0100D500BE0E4B9B6A1B0300D500BE90
:1043B0000B4B9B6A580300D500BE094B9B6A9903BF
:1043C00000D500BE064B9B6ADA0306D400BE00BED1
:1043D000FEE7DB6A9B07FAD5F8E700BEF6E700BF09
:1043E00000ED00E000F038BD00F03CBD2DE9F041EB
:1043F000CEB004464C2200210AA80CF0DBF92022A2
:10440000002102A80CF0D6F9BC2200211EA80CF055
:10441000D1F9022004F068FA2368012B4FF0000361
:1044200054D0534A02250193C820D16A514B21F040
:104430000101D162D26A02F0010201929A6942F44A
:1044400040429A619B6903F440430193019B494AAE
:1044500093699B04FCD548490224002201268B6AFB
:1044600004274FF0080823F0030323438B6205233E
:1044700016900AA818934FF4803310961794199445
:104480001597CDF86880CDE91B222122CDE9134490
:10449000CDE90A2304F012FF00B1FEE73F22032317
:1044A000294602A8CDE9022300220823CDE90423EE
:1044B00040224023CDE9062340234FF48062CDE91A
:1044C000082305F029FA0346B8B1FEE7294A042576
:1044D0000093F0209169264B41F44041916192692B
:1044E00002F440420092DA6A42F00102DA62DB6AC8
:1044F00003F001030093009BA9E720224FF48051B1
:1045000025934FF440152B9280222D931EA83093B3
:10451000269135914FF48071249234920C22339479
:10452000439140F2271120921022CDF884802A97DF
:104530001F96CDE92E34CDE93B334FF48033CDE9DE
:1045400022463193002446930623CDE93E45279326
:104550004FF48063094C2C931E94CDE9281205F08A
:104560001BFC00B1FEE704F0E5F94EB0BDE8F081B8
:104570000004005800480258004402580F130F036B
:104580002DE9F0410D46044684B0D1E9000184E8EC
:10459000030000F025FCAE797EB36F4609F05CFDA8
:1045A000FEF7D2FE09F0A8F92B79002B4ED16B79DA
:1045B0009BB1BFF34F8FBFF36F8F394B0022C3F80E
:1045C0005022BFF34F8FBFF36F8F5A6942F400320E
:1045D0005A61BFF34F8FBFF36F8F0022002339461C
:1045E0003048CDE9002309F0CBFC2E4809F02AFD24
:1045F00008F0B2FD04B0BDE8F08120466F46FFF739
:10460000F5FE012401F0AEFA4FF040534FF48078EC
:1046100038460193244BADF80040CDE9023801F053
:10462000BFFA19224FF0404338468DF80F40ADF8DD
:104630000D808DF801408DF80A608DF808200193F7
:1046400001F0AEFA042001F09BFAA7E7144C002316
:10465000C4F88430BFF34F8FD4F8803043F6E07E47
:10466000C3F3C906C3F34E334FEA431C0CEA0E00F2
:10467000334640EA8372013BC4F860225A1CF8D1E9
:10468000ACF1200C1CF1200FF0D1BFF34F8F636908
:1046900043F480336361BFF34F8FBFF36F8F86E7BF
:1046A00000ED00E090A900240E00010305F064BABB
:1046B0001C4B9B6803F17842B2F5003F25D3B3F55C
:1046C000803F20D303F16042B2F5003F1FD303F1D6
:1046D0005C42B2F5002F1CD303F17042B2F5902F6B
:1046E00019D303F14842B2F5803F16D303F180425B
:1046F000B2F1806F13D303F1E043B3F5000F2CBF89
:1047000008200720704701207047002070470220D2
:10471000704703207047042070470520704706202B
:10472000704700BF00ED00E003480023034A04493E
:1047300003600BF03FBC00BF90A9002400000024E0
:104740008542000810B4204C0022204B83B0D4F8DE
:1047500088101F4841F47001C4F8881019681D4C76
:1047600041F0010119601A61196808401A4918607E
:104770009A61DA611A629A62DA621A635A639A6318
:10478000DA631A645A64186820F4802018601A6684
:10479000D3F8DC2042F06042C3F8DC20D3F8DC30F0
:1047A0000193019B23681940B1F1005F03D20B4BC9
:1047B0000122C3F80821044B4FF000629A6003B055
:1047C0005DF8044B704700BF00ED00E00044025864
:1047D0007FEDF6EA0010005C0000FFFF0080005152
:1047E0004B4A036830B593428BB04FF00004CDE9DB
:1047F0000444CDE90644089404D0464A934249D083
:104800000BB030BD444D4FF4C0524448D5F8E030B1
:1048100043F00103C5F8E030D5F8E03003F00103C0
:1048200000930223009904A9CDE904230A230893E5
:1048300002F09EF94FF40072002304A93748069451
:10484000CDE9042302F094F9D5F8D8302246214668
:1048500043F000636220C5F8D830D5F8D83003F0B3
:1048600000630193019B01F007F9622001F042F916
:1048700022462146632001F0FFF8632001F03AF957
:1048800022462146652001F0F7F8652001F032F953
:104890000BB030BD204D4FF4404204A9D5F8E030B4
:1048A00043F00203C5F8E030D5F8E03003F002032E
:1048B0000293022302981A48CDE904230C2308939B
:1048C00002F056F9D5F8D830224621464A2043F066
:1048D0000073C5F8D830D5F8D83003F000730393CF
:1048E000039B01F0C9F84A2001F004F92246214651
:1048F0004B2001F0C1F84B2001F0FCF82246214684
:104900004D2001F0B9F84D2001F0F4F80BB030BDA6
:104910000000084000000440004402580000025813
:104920000004025800F57171D0F8040407F002BFCA
:10493000C1EBC10300EB8303D0F80404D3F80822D1
:1049400007F026BFC1EBC10300EB8303D0F80404DA
:104950009A6C07F05BBF00BFD0F8040407F0FABF01
:10496000C16810B5044619B1022900D0FEE7012143
:10497000D4F8040407F0D8FFD4F80404BDE81040CC
:1049800007F0AABF10B50446D0F8040407F0D0FF22
:104990002268D2F8003E43F00103C2F8003E236AC9
:1049A00023B1034A136943F00603136110BD00BF2E
:1049B00000ED00E0D0F8040407F0C4BFD0F8040410
:1049C00007F0D8BFD0F8040407F0D2BFD0F8040431
:1049D00007F0D2BFD0F8040407F0D0BF70B5067856
:1049E00004461EB1012E30D0002070BD304D092389
:1049F000304AC5F80404C0F8985228462E612E6348
:104A0000C5E9002302230222EB600023C5E9062347
:104A100000220023C5E9082301220123C5E90A2356
:104A200003F0AEF900B1FEE78021284603F03CFF19
:104A300031464022284603F00DFF802201212846FE
:104A400003F008FF2678012ECED11B4D09221B4B07
:104A500000216A6002222B600223C5F80444284624
:104A6000EB600023C4F898522961C5E906230022AF
:104A70000023C5E90823C5E90C2301220023C5E969
:104A80000A2303F07DF9044600B1FEE74FF40071FC
:104A9000284603F009FF21468022284603F0DAFE6B
:104AA0004FF4BA723146284603F0D4FE9CE700BFAB
:104AB00098A9002400000840A0AD00240000044094
:104AC000D0F8980208B503F0F1F9032802D8024B98
:104AD000185C08BD022008BDB81801089446D0F83B
:104AE00098021A4608B5634603F066FD032802D80B
:104AF000024B185C08BD022008BD00BFB8180108B1
:104B0000D0F8980208B503F095FD032802D8024BAF
:104B1000185C08BD022008BDB8180108D0F898023A
:104B200008B503F017FE032802D8024B185C08BD35
:104B3000022008BDB8180108D0F8980208B503F0A3
:104B40004DFE032802D8024B185C08BD022008BDA8
:104B5000B81801080A06D0F8983206D4C1EBC10192
:104B600003EB810191F8FE01704701F07F01C1EB79
:104B7000C10103EB810191F83E007047D0F8980223
:104B800008B503F003FD032802D8024B185C08BDEA
:104B9000022008BDB8180108D0F8980208B503F043
:104BA000B1FD032802D8024B185C08BD022008BDE5
:104BB000B8180108D0F8980208B503F071FD032871
:104BC00002D8024B185C08BD022008BDB8180108C5
:104BD000D0F8980203F08CBDD0F8C00208F0C0B93C
:104BE000D0F8C00208F0D4B9D0F8C00208F0DCB99F
:104BF000704700BFD0F8C00208F0C2B9D0F8C002B8
:104C000008F0C2B9D0F8D00308B502F083FD03283C
:104C100002D8024B185C08BD022008BDBC18010870
:104C2000024B027853F82200704700BFE0180108D9
:104C3000024B427833F81200704700BFC0180108D9
:104C40008CB00A2814D8DFE800F01523313F4D5B03
:104C50006977859306004D4BD3F8E02042F48062DB
:104C6000C3F8E020D3F8E03003F480630B930B9B90
:104C70000CB07047454BD3F8E02042F00102C3F876
:104C8000E020D3F8E03003F001030193019BEFE74C
:104C90003E4BD3F8E02042F00202C3F8E020D3F804
:104CA000E03003F002030293029BE1E7374BD3F8B5
:104CB000E02042F00402C3F8E020D3F8E03003F033
:104CC00004030393039BD3E7304BD3F8E02042F077
:104CD0000802C3F8E020D3F8E03003F0080304939F
:104CE000049BC5E7294BD3F8E02042F01002C3F83B
:104CF000E020D3F8E03003F010030593059BB7E7FD
:104D0000224BD3F8E02042F02002C3F8E020D3F891
:104D1000E03003F020030693069BA9E71B4BD3F872
:104D2000E02042F04002C3F8E020D3F8E03003F086
:104D300040030793079B9BE7144BD3F8E02042F016
:104D40008002C3F8E020D3F8E03003F0800308933A
:104D5000089B8DE70D4BD3F8E02042F48072C3F836
:104D6000E020D3F8E03003F480730993099B7FE7D8
:104D7000064BD3F8E02042F40072C3F8E020D3F8E9
:104D8000E03003F400730A930A9B71E70044025871
:104D9000704700BF0F4B1B780BB90120704710B54F
:104DA00004464FF47A700C4AB0FBF3F31068B0FB82
:104DB000F3F000F0C1FE0F2C00D808B1012010BDA7
:104DC000002221464FF0FF3000F056FE034B00203A
:104DD0001C6010BD640000245C00002468000024F6
:104DE00038B50320124D00F035FE124C04F0F4FCEF
:104DF000114A12499369C3F30323CB5C03F01F03E9
:104E000020FA03F30F202B60926902F00F028A5CF4
:104E100002F01F02D3402360FFF7BCFF10B1012452
:104E2000204638BD0446FFF7B3FF204638BD00BF1B
:104E30005C0000246000002400440258A818010807
:104E4000034A044B11681B780B441360704700BF82
:104E50006CB4002464000024014B1868704700BF44
:104E60006CB4002438B50446FFF7F6FF0546631C12
:104E700002D0044B1B781C44FFF7EEFF431BA342F8
:104E8000FAD338BD64000024014B1868000C704749
:104E90000010005C704700BF806B08B5FFF7FAFF99
:104EA00008BD00BF836B5A6D12F0500F5A6D10B5DC
:104EB0001DD1196842F400725A650A6812F0080F91
:104EC000CA681BD012F4406F0DD1CA6894040AD48A
:104ED0005A6D22F480725A655A6DD10403D45A6D0A
:104EE00042F001025A651846FDF786FF10BDD20652
:104EF0000AD4DB6CBDE81040DB6C18479007E7D0A4
:104F00001846FDF779FFF1E71846FEF719F810BDCE
:104F1000806B08B5436D43F040034365836D43F0F8
:104F200004038365FEF70CF808BD00BFF0B500224E
:104F300083B0019290F85020012A00F01C810346B2
:104F400001201A6883F850009468640700F18A8091
:104F50000C68C4F31305002D40F08F80C4F3846403
:104F6000A0404D684FF01F0ED6694FEA951C3043A4
:104F70000CF00C0CD06105F01F0002F130058440EC
:104F80000EFA00FE5CF8050020EA0E0004434CF81F
:104F90000540906840076ED4956815F0080547D124
:104FA0000C68072002F11406B94F4FEAD45CC4F331
:104FB00004540CF0040C00FA04FE886800FA04F4AF
:104FC0005CF8060020EA0E0020434CF80600386822
:104FD00000F07040B0F1805F00F0C580D068D66806
:104FE000C70600F1E880C6F382064869760000FA39
:104FF00006F60F69042F00F0C18002F16004086812
:1050000054F827C000F0F8400CF0004C40EA0C00C7
:10501000304344F82700487E0E69012854F82600E2
:1050200008BF4FF0004520F00040054344F82650EB
:105030009068C40714D4CE68086806F01807954C29
:10504000D2F8C050FC40C0F31307044025EA07051E
:105050002C43C2F8C040904CA64246D0002816DB34
:10506000002003E05A6D42F020025A65002283F8C6
:10507000502003B0F0BD9068DAE794FAA4F5B5FAD1
:1050800085F5C4F3846405F01F05A84069E78349EA
:105090008A4200F0B68001F580718A4200F0B1804A
:1050A0007F4D804CA968A46801F0E076E44304F0E9
:1050B0000104002C00F0B4807B4CA04200F0FC8086
:1050C0007A4CA04200F01A81794CA042C8D1490222
:1050D000C6D474498A42C3D1AA68002022F0E07283
:1050E000324342F48002AA60C0E7002F6AD090FAEF
:1050F000A0F4B4FA84F4013404F01F04092C00F283
:10510000A48090FAA0F4B4FA84F490FAA0F5B5FA69
:1051100085F5013401260135A40605F01F0504F0CC
:10512000F84406FA05F52C4390FAA0F0B0FA80F0A6
:10513000304400F01F0000EB400000052043C60D86
:1051400002F11405C0F30450072406F0040604FA23
:1051500000F7745924EA07048F6807FA00F0204327
:10516000705108687AE7D6684869C6F38206760007
:1051700000FA06F63DE7022003B0F0BD106E0C68A1
:1051800000F0F840A506B0EB846F30D0506E00F010
:10519000F840854226D0906E00F0F84085422BD032
:1051A000D06E00F0F84085427FF442AFD06E20F020
:1051B0000040D0663CE77608486906F0080600FA29
:1051C00006F616E7800E441C04F01F06092E2DD8A3
:1051D000A406012004F0F844B040044306EB460066
:1051E0000005ABE7506E20F000405066D3E7106E2C
:1051F00020F000401066C9E7906E20F000409066F5
:10520000CEE7264C2B4D04F58074A96854F8F86C51
:10521000A468344301F0E076E44304F0010448E775
:105220005A6D012042F020025A651FE706EB460046
:10523000A50601241E3805F0F84504FA06F6000517
:10524000354340F00070284379E790FAA0F5B5FAAD
:1052500085F590FAA0F4B4FA84F4013501260134FE
:10526000AD0604F01F0405F0F84506FA04F42543E2
:1052700090FAA0F4B4FA84F4344404F01F0404EB6C
:105280004404A4F11E00000540F00070DBE700BFFD
:105290000010005CFFFF0F000000FF4700200240ED
:1052A0000063025800600258000084CB000052C71F
:1052B0000000B8CF0023024008023FF5D1AE1749E5
:1052C0008A427FF4CDAE164AA9681268154821F0CB
:1052D000E07192093143A0FB020241F400019209FE
:1052E000A96052000192019A002A3FF4B9AE019AD6
:1052F000013A0192019A002AF9D1B1E611F08070C9
:105300007FF4AEAE05498A427FF4AAAEAA6822F0C5
:10531000E072324342F08072AA60A7E60060025851
:105320005C000024632D3E0503689A68D20701D50E
:10533000002070479968214A114270B5044608D090
:10534000636D012043F010036365A36D0343A36500
:1053500070BD99681A4A0A4042F001029A60FFF74C
:105360007BFD2368174A054693421ED002F58072E2
:1053700093421AD0144A9268114E0AE09A68324059
:1053800042F001029A60FFF767FD401B0228D7D860
:1053900023681A68D2070FD49A68D107EED5FFF7B1
:1053A0005BFD401B0228F3D9CAE7084A9268D00681
:1053B000E2D0074A9342DFD1002070BD3F00008059
:1053C000C0FFFF7F0020024000630258002302401C
:1053D000002102402DE9F0413A4D044600680F4695
:1053E0001646A84219D0384B984216D0374DAB68B4
:1053F0008068420716D494F85020012A12D003F096
:105400001F080122B8F1090F84F850200DD900239C
:10541000012084F85030BDE8F0812D4DAB688068E4
:105420004207E8D50220BDE8F08140F2212323FAAB
:1054300008F3DB4313EA0205E9D12046FFF774FFC6
:10544000002839D1626D234B2168134043F48073E7
:105450006365B8F1000F02D01B4B994203D0636D16
:1054600023F480136365636D13F4805328D0A36D18
:1054700023F00603A365E06C3346174D3A464031EE
:10548000C563164D0564164DC5641C2541F8405C86
:10549000002584F8505051F83C5C45F0100541F867
:1054A0003C5C00F059FE22680E4B91680B4043F0C3
:1054B00004039360BDE8F08184F85050BDE8F081AA
:1054C000A365D8E700200240002102400063025893
:1054D00000230240FEF0FFFFA54E0008994E000891
:1054E000114F0008C0FFFF7F38B503689A68910725
:1054F00002D59B68002038BD9A68D20723D59A68E8
:10550000044602F00D02012A08D0636D012043F029
:1055100010036365A36D0343A36538BD9868032139
:105520000A4A024042F002029A601960FFF794FCB6
:10553000054604E0FFF790FC401B0228E5D82368ED
:105540009B68DB07F6D4002038BD00BFC0FFFF7F9B
:1055500038B5574A04460368934226D002F5807254
:10556000934222D0534B9B6813F4403F22D004F067
:10557000EDFA63680546B3F5003F00F08880B3F5A7
:10558000403F70D0B3F5803F00F08180FFF77CFC96
:1055900041F2030398422DD8474B9D425DD92268C2
:1055A000936843F48073936038BD444B9B6813F455
:1055B000403FDCD14FF4002005F066FB63680546F0
:1055C000B3F5101F6DD008D8B3F5E01F55D01AD928
:1055D000B3F5001FDAD14509D8E7B3F5201F4AD04B
:1055E000B3F5301FD2D1FFF74FFC41F203039842CD
:1055F00033D92D0A324B9D421DD82268936823F47B
:105600004073936038BDB3F5801F06D00AD9B3F557
:10561000A01F02D0B3F5C01FB8D19B0C5B00B5FB37
:10562000F3F5B3E7B3F5002FF7D023F40022B2F57A
:10563000802FF2D0AAE7234B234A2B4493421ED952
:10564000224B234A2B449342226893682BD823F49D
:10565000407343F40073936038BD2268936823F469
:105660008073936038BD8508FFF70EFC41F2030399
:105670009842BFD890E7C50988E7050986E7226800
:10568000936823F4407343F48073936038BD1B0C1C
:10569000B5FBF3F5FFF7F8FB41F203039842A9D8F5
:1056A0007AE7850972E743F44073936038BD00BF21
:1056B0000020024000630258002D31010023024007
:1056C000105E5F00EFA1A0FF0F5E5F00DF4341FFB0
:1056D0001FBCBE0030B5002383B00193002800F04A
:1056E000D080456D0446002D00F0BA802268936892
:1056F0009B0003D59168714B0B4093609368DD006C
:1057000015D46F4B90686F491B6801406E489B0928
:1057100041F08051A0FB030391609B090193019B21
:105720002BB1019B013B0193019B002BF9D19368A5
:10573000D80024D4636D012543F010036365A36D85
:105740002B43A365936813F0040F636D1DD1D90635
:105750001BD4636D23F4817343F002036365936884
:10576000DB0728D4594B9A4217D003F580739A422D
:1057700013D0574B9B68D9071DD4564A15E0936840
:10578000002513F0040F636DE1D0636D012543F034
:1057900010032846636503B030BD4C4A4E4B9268F7
:1057A0009B681343D80706D44C4A9368616823F476
:1057B0007C130B439360FFF767FB41F20303A1687F
:1057C0009842237F52D894F815C01A04206B42EAFD
:1057D0004C3202430A43012B03D1236A013B42EAC4
:1057E0004342636A23B103F47873A16A0B431A43FB
:1057F00023683B49D86801400A43DA609A6812F08E
:10580000040F9A681CD112071AD4D868354A217D32
:10581000024042EA8132E16A0A43DA6094F83820B1
:10582000012A3AD01A6922F001021A611A69204647
:10583000616B22F070420A431A61FFF789FE236808
:10584000E268012A21D01A6B22F00F021A63636DFD
:10585000284623F0030343F00103636503B030BD22
:10586000FDF778FAA56584F850503FE71029AAD1D2
:10587000617D1A0442EA4132216B0A4342F01C0264
:10588000A9E70125284603B030BD196BA26921F0B4
:105890000F01013A0A431A63D9E7D4E910211869C4
:1058A0000A43114901400A43A16C0A43E16B42EAF1
:1058B000014242F001021A61B8E700BFC0FFFF5F7A
:1058C0005C000024C0FFFF6F632D3E0500200240F6
:1058D0000060025800630258002102400023024089
:1058E00003C0F0FFFCBFFFFF1EF800FCF0B5002373
:1058F00083B0019390F85030012B40D0012304462F
:105900000E46154680F85030FFF7EEFDE8B9676D9A
:1059100005F080421B4B06F480311B4D3B401B4F72
:1059200043F00203636523689E68354015430D43C9
:1059300045F000459D609A68002A0FDB636D23F0F7
:10594000030343F00103636503E0636D43F0100359
:105950006365002384F8503003B0F0BD019A013232
:105960000192019ABA42E6D9636D0022012023F028
:10597000120384F8502043F010036365ECE7022023
:1059800003B0F0BDFDEEFFFFC0FFFE3FFF955A558F
:10599000F0B490F850200E68012A49D00346294AF5
:1059A00001201C6883F85000944208D05A6D0021F1
:1059B00042F0200283F850105A65F0BC7047224D27
:1059C000AA6852070AD5A2685A6D012042F0200247
:1059D0005A65002283F85020F0BC7047A06810F090
:1059E0000400F1D1C6B1DFF868C04F68DCF80820C8
:1059F00022F440423A43CCF80820A468AA68224323
:105A0000D40713D48A68DCF8081016430F4A0A40FA
:105A10001643CCF80860DCE70D498A6822F440425E
:105A20008A60A068AA680243D00704D50020D0E7A6
:105A30000220F0BC70478C683046044A22408A60DD
:105A4000C7E700BF0020024000210240E0F0FFFF56
:105A50000023024006494FF6FF0C0002054BCA68BE
:105A600000F4E06002EA0C0210430343CB6070478D
:105A700000ED00E00000FA051B4BDB68C3F30223D6
:105A800000B5C3F1070E03F1040CBEF1040F28BFEB
:105A90004FF0040EBCF1060F1AD9033B4FF0FF3C48
:105AA0000CFA03FC22EA0C024FF0FF3C00280CFA2F
:105AB0000EFC21EA0C0101FA03F141EA02010ADBC2
:105AC00009010A4BC9B2034483F800135DF804FBD3
:105AD00000221346E8E700F00F000901044BC9B2A9
